:100000000C94CF030C9407040C9407040C9407047D
:100010000C9407040C9407040C9407040C94070434
:100020000C9407040C9407040C94C42B0C949C2C83
:100030000C94D20F0C9407040C9407040C9407043E
:100040000C9407040C9407040C9407040C94070404
:100050000C9407040C94A02B0C9407040C94070434
:100060000C9407040C9407040C9407040C940704E4
:100070000C9407040C9407040C9407040C940704D4
:100080000C9407040C9407040C9407040C940704C4
:100090000C9407040C9407040C9407040C940704B4
:1000A0000C9407040C9407040C94070405010980C0
:1000B000A101850319012AB700150126B700950192
:1000C00075108100C0050C0901A101850419012AE0
:1000D000A002150126A002950175108100C005013E
:1000E0000906A1018506050719E029E71500250184
:1000F0009508750181020507190029EF15002501F2
:1001000095F075018102050819012905950575010C
:100110009102950175039101C00660FF0961A1017B
:100120000962150026FF00952075088102096315F4
:100130000026FF00952075089102C005010906A15F
:1001400001050719E029E7150025019508750181CA
:10015000029501750881010507190029FF15002680
:10016000FF0095067508810005081901290515008D
:100170002501950575019102950175039101C00056
:10018000AF00AE0000000000000000000000000012
:10019000000000000000000000000000000000005F
:1001A000000000000000007E0F00D4FFFFFFC7002A
:1001B00000007800000000000000002A2B2800004A
:1001C0000000000000000000000000000000290006
:1001D0000000002C1E3420212224342627252E3610
:1001E0002D3738271E1F202122232425263333367E
:1001F0002E37381F0405060708090A0B0C0D0E0FD1
:10020000101112131415161718191A1B1C1D2F3153
:1002100030232D350405060708090A0B0C0D0E0FB7
:10022000101112131415161718191A1B1C1D2F3133
:1002300030354C09025B00030100A0FA09040000FC
:1002400001030101000921110100012244000705F9
:1002500081030800010904010002030000000921D4
:100260001101000122220007058203200001070579
:10027000030320000109040200010300000009211A
:1002800011010001226D0007058403200001120105
:10029000000200000008EDFE6060000101020301A1
:1002A0001C037600690061006C003A0066003600AD
:1002B00034006300320062003300630000000E036C
:1002C0003300780033005F007600320000000E0338
:1002D000450069006C00650065006E0000000403C5
:1002E00009040400040004000400040004000400E5
:1002F00004000400A900AA00000000000080C0E083
:10030000E070303818181898D858D898B8B070E0FD
:10031000E0C08000000000000000000000000000BD
:1003200000000000000000000000000000000000CD
:1003300000000000000000000000000000000000BD
:1003400000000000000000000000000000000000AD
:10035000000000000000000000000000000000009D
:10036000000000000000000000000000000000008D
:100370000000000000000000000000F8FE0F635CB9
:1003800000FCFE1EEEF636363636F6EE1CF9F30E9F
:10039000D8730FFEF8000000FF0101010103060CF5
:1003A000180C060301010101FF0000308C040C0849
:1003B000F800E0380C0C000030E030101890E0201D
:1003C00020204080000000000000FF010101012109
:1003D00021210101010386FC000060202020C000D3
:1003E00000C04060202060C0FC0F00000000000042
:1003F00000000000000000000000001F7FF0C6BAEF
:1004000000FFFFF8776F6C6C6CECEFF7F89F0F60F4
:10041000BDC7F07F1F000000FF80808080FF060CBA
:10042000180C06FF80808080FF00061F1119090349
:100430000700030404040400000300000003060C8A
:1004400008080407000000000000FF80808080FE94
:1004500002020202020301000C1E131119070F0011
:10046000030F181010180C0F1900000000000000F6
:100470000000000000000000000000000001030771
:10048000060F0F1F1818181818181B1F1F0F0E061D
:100490000703010000000000000000000000000051
:1004A000000000000000000000000000000000004C
:1004B000000000000000000000000000000000003C
:1004C000000000000000000000000000000000002C
:1004D000000000000000000000000000000000001C
:1004E000000000000000000000000000000000000C
:1004F00000000000000000000001010101010101F5
:1005000001010202020202020202020303030303C8
:100510000303030404040404040405050505050697
:100520000606060607070707070808080809090955
:10053000090A0A0A0B0B0B0C0C0C0D0D0D0E0E0EFE
:100540000F0F0F101011111112121313141415158F
:1005500016161717181819191A1A1B1B1C1D1D1E01
:100560001E1F202021222223242425262627282955
:10057000292A2B2C2D2D2E2F303132323334353683
:100580003738393A3B3C3D3E3F4041424344454683
:100590004748494A4C4D4E4F50515354555658595F
:1005A0005A5B5D5E5F616264656668696B6C6D6F06
:1005B0007072737577787A7B7D7E80828385878879
:1005C0008A8C8E8F91939596989A9C9EA0A2A3A5B3
:1005D000A7A9ABADAFB1B3B5B7BABCBEC0C2C4C6B4
:1005E000C9CBCDCFD1D4D6D8DBDDDFE2E4E7E9EB70
:1005F000EEF0F3F5F8FAFDFF00DA0281FFD9F1DB46
:1006000020A4A62EAF00A0C0D30000A1C8D3000034
:10061000AED580A83F408D142000010001005E0887
:10062000F90D0F0E0000020002005A08F90D0F0E1E
:100630000000030001005F08F90D0F0E0000040028
:1006400002004408F90D0F0E3E0605000100600887
:10065000F90D0F0E0000060002004608F90D0F0EFE
:100660000000070002005C08F90D0F0E00000800F2
:1006700001006108F90D0F0E00001200020062086F
:10068000F90D0F0E0000130002006408F90D0F0EA3
:100690000000140001006608F90D0F0E000015009F
:1006A000000000004706B1120000FD377A585A00DA
:1006B0000004E6D6B4460200210116000000742FA3
:1006C000E5A3E0011600B25D003D8889C65436C33B
:1006D000174FE4D223E7A4DCC5EE4E4C82B07DE296
:1006E000744180D171E351692DD6745D27C700969E
:1006F0001AD228187B5DC28012D01AD0F535EF0EC1
:100700001B989B3DCA0D2B074C1B351030A728BDED
:100710001D786E83C5A11D5181EEA727584F37F86C
:10072000AE1E36F26D9CC426096A0171C7B91A6DF6
:10073000E877AAF4995DD2DD77482EE73F88384AFA
:100740006F8E829622AA0E85CB2EA4A1E907A4BEA5
:10075000E97B29255219395A16DF25955C3A45243B
:10076000DFCF77848786E686423847C2AE6ACFAA53
:100770000E9B5B4CC31062A2C49900000000C1FE36
:100780000E5D21931A1F0001CE0197020000DA8F3F
:10079000C4F6B1C467FB020000000004595A1124DA
:1007A0001FBECFEFDAE0DEBFCDBF04B603FE18C038
:1007B00080916C0890916D08A0916E08B0916F08BF
:1007C0008730904BA740B04B59F410926C081092B0
:1007D0006D0810926E0810926F08E0E0F8E309953A
:1007E00011E0A0E0B1E0EAEFFFE502C005900D9254
:1007F000A438B107D9F728E0A4E8B1E001C01D9200
:10080000AC36B207E1F70E9466230C94922F0C9449
:1008100000009C01FB019A9581159F4120F5D901AB
:10082000AA27B270832F8170B90166277470A9015D
:100830004427587034FF0DC08295807FAB2B09F0A0
:100840008062672B09F08064452B09F08068099568
:100850000895AB2B09F08260672B09F08460452B6B
:10086000B1F38860F4CF80E0F2CF982F82958F703B
:10087000882311F0982F84E0292F2695269522238E
:1008800011F08E5F922F969591118F5F0895982F9A
:100890009095809197078923809397070895809179
:1008A0008407882331F0109284071092F906109281
:1008B000F8060895803E9105D1F1C8F48133910581
:1008C00009F47FC048F48932910509F46FC08A3277
:1008D000910509F47DC0089589339105E1F08238CE
:1008E0009105C9F08533910509F45BC00895843EF4
:1008F0009105D1F148F4823E910531F1833E910595
:1009000041F181EE90E00895863E9105C1F1873E68
:100910009105E1F10895209168082370211165C0C7
:100920002091690823FF14C089E290E00895209186
:10093000680820FD43C03091690830FF09C024FFDA
:100940004EC080E090E008952091680822FDF7CF26
:1009500008952091680822FD45C03091690830FD56
:1009600044C024FFF5CFEDCF2091690821FFF0CFDF
:100970008091680884FDE5CF87EE90E0089520918E
:10098000680823FFE5CF24FDDCCFF6CF209168086F
:1009900023FD2EC03091690831FFE3CF84EE90E053
:1009A00008952091680825FFD3CFBECF2091680815
:1009B00025FD21C02091690823FFCACF89E390E07B
:1009C00008952091680826FFC3CF8AE290E0089539
:1009D0002091680826FFBCCF81E390E0089583EE64
:1009E00090E0089582EE90E0089580EE90E0089502
:1009F00086EE90E0089585E390E0AACF9091680894
:100A000092FF10C041E0282F2471243009F040E00B
:100A100031E0282F2871283009F030E0431711F019
:100A20002CE0822793FF10C041E0282F247124314D
:100A300009F040E031E0282F2871283109F030E03A
:100A4000431711F02CE082273091690830FF10C065
:100A500051E0282F2171213009F050E041E0282F8A
:100A60002871283009F040E0541711F029E082275E
:100A700031FF10C041E0282F2171213109F040E001
:100A800031E0282F2871283109F030E0431711F0A8
:100A900029E0822794FD877E08951F93CF93DF93EB
:100AA0000E945A04EC01811520E2920770F58F3FF5
:100AB000910511F008F058C0833C9105C0F4883AC4
:100AC000910508F044C0853A910538F0A497D064A8
:100AD000CE01DF91CF911F9108950497C8F781E06F
:100AE000219709F080E0C82F80E0D82FF1CF803E19
:100AF000910530F48D3C9105A8F5C0E0D0E0E8CF39
:100B0000805E9109089720F3F8CF803A22E592079A
:100B100078F4C03882E5D807C8F5CE019052811527
:100B2000904358F7CE0199270E945A04EC01D0CF88
:100B3000805A9245809708F78C2F8F710E94FE048F
:100B4000C82FD0E0DC2FCC27CC27DF71C1CFC85A0B
:100B5000D0E0CC0FDD1FC25BDE4F0990D881C02DE5
:100B6000D464B6CFD065B4CF8D2F0E94FE04182F69
:100B7000CE0199270E945A04212F30E0322F2227DC
:100B8000E901CC27DF71C82BD92BA2CFCF71D0E0E0
:100B9000DC2FCC27C46FD06A9BCF80E00895F894F7
:100BA000E82FE295EF70F0E041A18F7021E030E096
:100BB000B90102C0660F771F8A95E2F7CB01962F25
:100BC0009095942391A392A1892B82A37894089560
:100BD0008091BC06843070F48091BC068370846080
:100BE0008093BC068091BF06813518F080E5809324
:100BF000BF060895883080F7F5CF8091BC0680FD50
:100C00000AC0EAE8F2E0118210821282339682E092
:100C1000E639F807C1F764E070E08AE892E00E94E4
:100C2000A2090895FA01882311F009950895FB019E
:100C3000FCCF81152CE7920741F4209113013091EC
:100C40001401232B11F480E090E00895E4E0F7E034
:100C500080E090E064EB71E24BED51E220E532E29E
:100C60007783668351874087338722879787868774
:100C7000019670968830910599F7089580914408FF
:100C80009091450890931201809311010895A0E07E
:100C9000B0E0EDE4F6E00C94742EFB018FEF9FEFD3
:100CA0004430510508F465C04091680841FB88272D
:100CB00080F990E0880F991F42FBAA24A0F8B12C7C
:100CC000AA0CBB1CAA0CBB1C8A299B2940FB8824AC
:100CD00080F8912C8829992943FBCC24C0F8D12C89
:100CE00053E0CC0CDD1C5A95E1F78C299D2944FB7F
:100CF000EE24E0F8F12C64E0EE0CFF1C6A95E1F7BD
:100D00008E299F2945FB002700F910E075E0000FB0
:100D1000111F7A95E1F7802B912B46FB222720F9B2
:100D2000C22F20E0D22FA6E0CC0FDD1FAA95E1F75D
:100D30008C2B9D2B47FB442740F920E8429FA001C4
:100D40001124842B952B20916908322F3170932B1D
:100D500026952170B22FBB0FA0E08A2B9B2B092E6A
:100D6000000CAA0BBB0B80839183A283B38380E02A
:100D700090E0CDB7DEB7ECE00C94902E86E66111E2
:100D800001C087E9E82FE295EF70F0E041A18F7094
:100D900021E030E0B90102C0660F771F8A95E2F7C3
:100DA000CB01962F9095942391A392A1892B82A396
:100DB000089526E6611101C027E9E22FE295EF7060
:100DC000E05EF0E0808190E02F7002C095958795FD
:100DD0002A95E2F781700895879A0895AC0123E07F
:100DE000969587952A95E1F78E719927FC01EE5229
:100DF000FE4F0190F081E02D4F70552721E030E04B
:100E000002C0220F331F4A95E2F7662341F0E22B1E
:100E1000F32B8E529E4FDC01ED93FC9308952095A9
:100E20003095E223F323F5CF1092DD071092DC0713
:100E3000ECE9F7E08581811102C0148216823796B1
:100E400087E0E43DF807B1F70895AC013091DF0782
:100E50006091DE07232F621301C00895822F90E076
:100E6000FC01EE0FFF1FEC52F84F0190F081E02DD6
:100E7000E417F50791F467E0649FF001659FF00DBA
:100E80001124E456F84F41E044832313E6CF019642
:100E9000837099278093DF0708950196282F237088
:100EA000DACFFA01309709F009950895E091EE063E
:100EB000F091EF06309729F00190F081E02D09952F
:100EC000089580E00895A3E0B0E0E9E6F7E00C942F
:100ED0007E2E9C018091CF019091D00182179307C3
:100EE000A1F03093D0012093CF01E091EE06F09174
:100EF000EF06309751F083E089833B832A83008497
:100F0000F185E02DCE01019609952396E2E00C943F
:100F10009A2EA3E0B0E0EFE8F7E00C947E2E9C015F
:100F20008091CD019091CE0182179307A1F030936B
:100F3000CE012093CD01E091EE06F091EF063097BF
:100F400051F084E089833B832A830084F185E02D7E
:100F5000CE01019609952396E2E00C949A2E909189
:100F600015019923C1F09091680897FF14C0E82FEC
:100F7000E695E695E695803FF8F4F0E0E257FE4FFF
:100F8000877021E030E001C0220F8A95EAF7828164
:100F9000822B82830895A8E8B1E0EFEF90E02D91D5
:100FA000821751F0EF3F19F4211101C0E92F9F5F23
:100FB0009630A9F7EF3F09F408950E2E000CFF0BB1
:100FC000EA57FE4FE6CF909115019923E1F09091F9
:100FD000680897FF18C0E82FE695E695E695803FEC
:100FE000F0F4F0E0E257FE4F877021E030E0A90115
:100FF00002C0440F551F8A95E2F7CA01809592817D
:10100000892382830895E8E8F1E09191891303C070
:10101000DF0111971C9251E0EE38F507B1F7089502
:10102000A4E0B0E0E6E1F8E00C947E2E8FB7F894EF
:101030002091C9013091CA014091CB015091CC015E
:1010400029833A834B835C838FBF69817A818B814B
:101050009C812496E2E00C949A2E8091C801089518
:101060000895FC019B018091BE019091BF018617FC
:10107000970740F0672B29F48091E8008E778093E2
:10108000E800C90140E0009741F4411106C0809199
:10109000E80082FF2FC080E008952091C706222338
:1010A000A9F12530A9F12091E80023FD2DC0209160
:1010B000E80022FDECCF2091E80020FFE4CF309142
:1010C000F3002091F200009719F02830310558F014
:1010D00041E02830310509F040E02091E8002E770A
:1010E0002093E800D0CF41914093F10001972F5F0A
:1010F0003F4FE9CF8091C706882341F0853041F00A
:101100008091E80083FFC3CF81E0089582E00895D5
:1011100083E008958091B80187FF13C08091E800B3
:1011200082FF06C08091E8008B778093E80004C0BE
:101130008091C7068111F2CF08958091C706882358
:10114000D9F38091E80080FFF8CF8091E8008E7796
:10115000ECCF2091E4003091E50095E6A901809163
:10116000EC008170882331F08091E80080FF06C098
:1011700080E008952091E80022FD1BC08091C70601
:10118000882391F0853091F08091EB0085FD10C0AF
:101190002091E4003091E5004217530701F391508C
:1011A0009111DCCF84E0089582E0089583E00895F2
:1011B00081E00895E8EDF0E080818E7F80831092D9
:1011C000E2001092DA001092E100A0EEB0E08C9103
:1011D00081608C9380818F77808319BCA7EDB0E00C
:1011E0008C918E7F8C9380818F7E80831092B7014B
:1011F000089580919907982F9D7F90939907982F34
:10120000957091110CC081FF0AC08091690882FF1E
:1012100006C01092990710929B0710929A070895A2
:10122000982FE42FE2709093E900891308C0762F7D
:10123000242F50E0E11111C091E0980FF4CF70918C
:10124000EC002091ED005091F00021FD06C09F5F61
:10125000973049F78093E90008953091EB003E7F85
:101260003093EB003091ED003D7F3093ED003091F5
:10127000EB0031603093EB007093EC002093ED00B5
:101280005093F0002091EE0027FDE1CF0895A0E0FB
:10129000B0E0EDE4F9E00C94782EC8EDD0E0888160
:1012A0008F7E8883E7EDF0E080818160808384E039
:1012B00082BF81E08093B70188818E7F888302EEB0
:1012C00010E0F80110821092DA0081EEC82ED12CC5
:1012D000F601108288818F7788838881806888836F
:1012E00088818F7D888319BC1092C7061092B60141
:1012F0001092A8061092B50190EEE92EF12CF7019C
:1013000080818B7F808388818160888342E060E078
:1013100080E00E941009F60180818E7F8083F801B1
:10132000808181608083808188608083F7018081F3
:101330008E7F8083888180618883CDB7DEB7E8E0C7
:101340000C94942E9C01AB0161B36F7771B37068FC
:10135000EFB7F894CA01880F991F840F951F820F69
:10136000931F8217930741F4EFBF8FE594E0019735
:10137000F1F700C000000895D9014D919D0158E09A
:1013800071BB000000C047FF61BB440F000000C0FC
:1013900000C000C061BB00C05A9591F7E2CF81E068
:1013A0008093E00080E28093D8001092C9008FE122
:1013B0009EE40197F1F700C0000087E090EBDC01AC
:1013C00080936C0890936D08A0936E08B0936F089B
:1013D00088E19CE00FB6F894A895809360000FBE5A
:1013E00090936000FFCF0F931F93CF93DF93EB0198
:1013F0008A019091C706943079F58093E9008FEFC8
:101400009091E80095FD07C095ED9A95F1F70000E1
:1014100081508111F5CF8091E80085FF1DC00E94A9
:10142000A908811114C08091E80085FD06C0809153
:10143000E8008E778093E800F2CF88818093F100F6
:10144000015011090115110511F02196ECCF809181
:10145000E8008E778093E800DF91CF911F910F9184
:101460000895CF93DF93D82FC92F48E050E0682F1D
:10147000792F81E00E94F30988E0ED2FFC2FA0EC8A
:10148000B1E001900D928A95E1F7DF91CF91089537
:10149000BC0140E250E084E00E94F3090895BC01E1
:1014A00043E050E084E00E94F309089590916908B8
:1014B00092FB222720F9281771F080FB92F9909374
:1014C0006908609168087091690884E090E00E9462
:1014D000742F0E94F90808951F93CF93DF93962FDE
:1014E000122F632F8430D8F49330C8F44330B8F40B
:1014F000C42FD0E0CC0FDD1F26E0929FC00DD11D80
:10150000112492E1899FC00DD11D1124CE0188962E
:101510000E94562F612FCE0189960E94562FDF918F
:10152000CF911F9108951F93CF93DF93962F122F82
:10153000632F8430A0F4911112C094E0899FE001E0
:101540001124C059DF4FCE01442369F00E94562F69
:1015500081E090E0612F8C0F9D1F0E94562FDF913C
:10156000CF911F91089502960E94562F83E090E03C
:10157000F1CFCF93DF93C4E4D1E060E0CE010E94CD
:10158000562F2196C11584E0D807B9F7DF91CF9186
:101590000895882381F06DE284E290E00E94562F46
:1015A00065E085E290E00E94562F60E186E290E0DF
:1015B0000E94562F08956FEF84E290E00E94562F0C
:1015C0006FEF85E290E00E94562F6FEFEFCF0F9301
:1015D0001F93CF93DF9304E418E0C0E8D0E0CE017E
:1015E0000E94322FF80161918F01861719F0CE0108
:1015F0000E94562F2196C43AD10589F7DF91CF91E9
:101600001F910F9108950F931F93CF93DF9304E4DD
:1016100018E0C0E8D0E0CE010E94322FF80181939B
:101620008F012196C43AD105B1F7C4E2D6E0FE019C
:1016300085919491009711F0FC0109952C96F6E0A4
:10164000C43BDF07A1F7DF91CF911F910F91089560
:101650000F931F93CF93DF93843030F5633020F5E1
:10166000433010F5C42FD0E0CC0FDD1F26E0629F81
:10167000C00DD11D112432E1839FC00DD11D112455
:10168000CE0188960E94322F082F10E0102F0027DD
:10169000CE0189960E94322F9801282BC901DF9133
:1016A000CF911F910F91089580E090E0F8CF0F93B4
:1016B0001F93CF93DF93843048F5611127C024E056
:1016C000829F8001112400591F4FC8014423A1F0BB
:1016D0000E94322FC82FD0E0DC2FCC2781E090E091
:1016E000800F911F0E94322F9E01282BC901DF918C
:1016F000CF911F910F91089502960E94322FC82F0B
:10170000D0E0DC2FCC2783E090E0EACF80E090E0CF
:10171000EECF462F672F2091CA063091CB06232BA0
:10172000C9F4703F39F4403FA9F48091C806909104
:10173000C9060895733038F4433060F4843050F4AF
:101740000E94280B08957D3F41F4411103C041E000
:10175000843048F080E090E008957C3FD9F7411153
:10176000F9CF8430B8F760E00E94570B0895CF930B
:10177000DF93FC0186819781009749F4C081D18174
:10178000809143080E943504BE010E94890BDF91BD
:10179000CF91089584E290E00E94322F8D3289F437
:1017A00085E290E00E94322F853059F486E290E085
:1017B0000E94322F91E0803109F090E0892F8170F2
:1017C000089580E0FCCFAAE0B0E0E9EEFBE00C94E5
:1017D000782EE2E3F2E080E5DF011D928A95E9F7D9
:1017E000ECE9F7E088E3DF011D928A95E9F782E3EF
:1017F000C82E82E0D82E7F0104EF10E0F701D182DD
:10180000C0824AE050E0B801CE0101960E94222F2A
:1018100088E0FE013196D60101900D928A95E1F79C
:1018200089859A85D70113969C938E931297BAE077
:10183000CB0ED11CE7E0EE0EF11C065F1F4F043407
:10184000F1E01F07D9F62A96E8E00C94942E282F91
:10185000CB01283070F44AE0249F90011124B90193
:101860006C557F4F4AE050E00E94222F80E090E0CC
:1018700008958FEF9FEF0895A0E0B0E0E2E4FCE070
:101880000C94782E8901D42FC52F6B017C010E9406
:10189000E805A8016D2F7C2F88E090E00E94682F5A
:1018A00098014D2F5C2FB601C70100E20E94E12E86
:1018B000622F83E290E00E94562FCDB7DEB7E8E0BA
:1018C0000C94942E8091C006833018F48F5F80931F
:1018D000C0062091BC063091BD064091BE065091D5
:1018E000BF066091C0067091C1068091C2069091BA
:1018F000C3060E943C0C08958091C006882319F00D
:1019000081508093C0062091BC063091BD06409165
:10191000BE065091BF066091C0067091C1068091CD
:10192000C2069091C3060E943C0C0895A0E0B0E06E
:10193000ECE9FCE00C94732E982ED62FC42F722E57
:10194000B090BC06B0FE39C08B2D8C7F8430F1F492
:10195000E42F413508F0E0E5F0E0E850FB4FD1110D
:1019600031C0F491AF2E8F2EB0FE10C0AAE8B2E0C5
:1019700011968C921197FC931296AC921297139633
:1019800052E0A639B507A1F70E94FD059092BD0669
:10199000D093BE06C093BF06772079F02091BC0695
:1019A0006091C0067091C106392D4D2F5C2F80913A
:1019B000C2069091C3060E943C0CCDB7DEB7EDE0A5
:1019C0000C948F2E292D30E0ED2EF12CE491FE2F7A
:1019D00086E0829F6001839FD00C11240FEF10E0FE
:1019E000C601B8010E945A2E220F331F45E5469FBB
:1019F000C001479F900D1124281B390B822F880F9F
:101A0000280FA8014E195F09E49FC001E59F900DC2
:101A10001124A92E2E9DA0012F9D500D1124452F7C
:101A20005527D801A41BB50BAD01E49FD001E59F5C
:101A3000B00D11248B2EA801421B51099A012E9D35
:101A4000A0012F9D500D3E9D500D1124452F55276F
:101A50009801241B350BA901E49F9001E59F300DEF
:101A6000112463307105C9F04CEFC41643E0D4066D
:101A700050F46130710509F477CF6230710589F057
:101A80008F2EF32F71CF6430710571F066307105C0
:101A9000B9F3F92FAB2E8E2E67CFFB2F892EAE2EEA
:101AA00063CF892EA32E60CF832EF92FF8CF2091FC
:101AB000BC0620FF1FC0237024602093BC06662351
:101AC00081F03091BD064091BE065091BF066091F5
:101AD000C0067091C1068091C2069091C3060E9413
:101AE0003C0C20E04091BF066091BE068091BD068F
:101AF0000E94960C08958091BC0680FF17C0282F85
:101B00002E7F2093BC063091BD064091BE065091B9
:101B1000BF066091C0067091C1068091C206909187
:101B2000C3060E943C0C0E94FD05089581608093CD
:101B3000BC0661E0869586950E94570D089561E088
:101B400081E00E94570D08959091BC069695969558
:101B50008FEF890F913009F481E061E00E94570D09
:101B60000895ECEBF6E0818121E0438162818B5F97
:101B70000E94960C0895ECEBF6E0818121E0438110
:101B8000628185500E94960C0895ECEBF6E062812C
:101B900025E0620F08F46FEF21E0438181810E940C
:101BA000960C0895ECEBF6E0628125E0621B08F4E8
:101BB00060E021E0438181810E94960C0895ECEB66
:101BC000F6E0438125E0420F08F44FEF21E0628107
:101BD00081810E94960C0895ECEBF6E0438125E0AC
:101BE000421B08F440E021E0628181810E94960C52
:101BF00008959C01CB01BA01F901329645915491A7
:101C00006417750748F0F9013496659174910E9444
:101C1000122F80E090E008958FEF9FEF08959C01D0
:101C2000DA010296FC0145915491FC018591949151
:101C3000A817B90758F0F9013496859194910E943C
:101C4000122F0E94E70A80E090E008958FEF9FEF47
:101C50000895AB0124E630E0BC0188E70E94BB2D6B
:101C60009C0181E0232B09F080E0089580919F067C
:101C7000882369F080919E06882349F062E070E035
:101C800081E891E00E94290E811110929E0608952C
:101C9000A4E0B0E0EEE4FEE00C947E2E80919F067E
:101CA0008823F9F00E941008DC01CB01805A95418D
:101CB000AF4FBF4F8093A0069093A106A093A206BA
:101CC000B093A30680919E0681110BC062E070E084
:101CD0008FE791E00E94290E882319F081E080931C
:101CE0009E062496E2E00C949A2E2F923F925F92E9
:101CF0006F927F928F929F92AF92BF92CF92DF921C
:101D0000EF92FF920F931F93CF93DF9300D000D0F9
:101D100000D0CDB7DEB780919F06882309F468C054
:101D20008DE992E090939C0280939B02209199020E
:101D300030919A02DC0180E090E061E070E0FC010B
:101D4000E850FD4F14914D911417A1F07D0141E031
:101D5000E41AF108F7011083AC01E6E056954795C7
:101D6000EA95E1F7FB0102C0EE0FFF1F4A95E2F78B
:101D70002E2B3F2B01968115F2E09F0701F7309340
:101D80009A0220939902232B81F080919D06811164
:101D90000CC00E94480E2091990230919A0280E076
:101DA00061E070E021153105E1F580919E06882300
:101DB000F9F00E94100869837A838B839C83809159
:101DC000A0069091A106A091A206B091A306298138
:101DD0003A814B815C81281B390B4A0B5B0BDA0182
:101DE000C9018F3F9F4FAF4FBF4710F40E94360E7F
:101DF0000F900F900F900F900F900F90DF91CF9159
:101E00001F910F91FF90EF90DF90CF90BF90AF9018
:101E10009F908F907F906F905F903F902F9008954C
:101E20008F5F082F10E01B01082E02C0220C331C0C
:101E30000A94E2F7A10142235323452B89F39091A1
:101E4000A50690FD43C0980136952795922F82955F
:101E5000880F880F80743FE3380F8093020120932E
:101E60000501309303019093060124E630E047E03A
:101E700050E060E071E088E70E94702D892B09F046
:101E800094CFA80126E0440F551F2A95E1F78091D1
:101E9000A50680FD23C043565D4F04E610E020E414
:101EA00030E060E488E70E94082E892B09F07DCF9E
:101EB0009101209530958091990290919A02282362
:101EC000392330939A02209399026FCF880F880F9D
:101ED000880F37E0380F20E097E0BFCFE2EFF1E066
:101EE00080E4DF011D928A95E9F7E4E3F1E0FE83E7
:101EF000ED8300E311E088E3C82E81E0D82E97E05F
:101F0000592E77247394AD81BE818D91BE83AD83AC
:101F1000F80121918F01240F352F311D23563D4F9C
:101F2000E82FF0E0EE50FE4F80E090E0652C681A5C
:101F3000872C082E01C0880C0A94EAF77901A12C9D
:101F4000D701BD907D01B820662D6A19677070E0D9
:101F5000BB2D062E01C0BB0F0A94EAF79B2E71958C
:101F6000619571096770772701C0B6946A95EAF7A1
:101F70009B286081962A9082A39468E0A612E0CF05
:101F8000019631968830910589F68D819E81C8161B
:101F9000D90609F0B8CF04E610E020E430E042EFC3
:101FA00051E07FCF1F921FB61F9211248F939F93F2
:101FB000AF93BF938091A706811113C08091C9018F
:101FC0009091CA01A091CB01B091CC014196A11D85
:101FD000B11D8093C9019093CA01A093CB01B09326
:101FE000CC01BF91AF919F918F911F901FBE1F9009
:101FF00018952FB7F8948091C9019091CA01A091CA
:10200000CB01B091CC012FBF0895809146089091EB
:102010004708892B91F00E94F90F2091F806309122
:10202000F906AC01421B530B9A0181E0409146082E
:10203000509147082417350708F480E0817008950F
:10204000CF93DF93C091970780919807C82B809119
:102050008407882329F18091460890914708892BAD
:1020600029F00E94051081110E944F04D09184072D
:10207000809115018823C1F08091680887FF14C002
:1020800020E931E08DE190E0F90140812F5F3F4F81
:1020900041119F5F8150C0F791110E944F04CD2BD9
:1020A0008C2FDF91CF91089528E831E085E0EBCFC8
:1020B00080911501882359F18091680887FF27C016
:1020C0000E94201080938F0140E250E06EEC76E099
:1020D0008EE891E00E94052F892BC1F080E2EEE8A6
:1020E000F1E0AEECB6E001900D928A95E1F7E09157
:1020F000EE06F091EF06309749F086E080938E016E
:102100000480F581E02D8EE891E0099508950E9404
:1021100020108093860148E050E060EF76E086E88A
:1021200091E00E94052F892B89F388E0E6E8F1E031
:10213000A0EFB6E001900D928A95E1F7E091EE06EE
:10214000F091EF06309711F30280F381E02D86E8DD
:1021500091E0DBCF882339F090919707892B80930A
:1021600097070E9458100895882339F09091980796
:10217000892B809398070E9458100895882321F096
:102180000E9447040E9458100895882341F08095CA
:10219000909198078923809398070E94581008957A
:1021A000CF93C82F8823B1F18CEF8C0F813AA0F523
:1021B00080911501882301F18091680887FF1CC078
:1021C000EC2FE695E695E695F0E0E257FE4F82812A
:1021D00090E04C2F477021E030E002C0220F331F07
:1021E0004A95E2F782239323892B79F08C2F0E9462
:1021F000E3070E94581009C0E8E8F1E08191C81790
:10220000A9F321E0EE38F207C9F78C2F0E94AF073F
:102210000E945810CF91089580E28C0F883068F4A6
:10222000C77081E090E001C0880FCA95EAF7C091BD
:102230009707C82BC0939707EBCF8BE58C0F8330A4
:1022400038F42C2F2452330BC9010E946307E2CFCC
:10225000C85ACB31F8F6EC2FF0E0EE0FFF1FE25B2F
:10226000FE4F808191810E948907D4CFCF93DF9365
:10227000EC01805E9109089720F064EB70E12097F3
:1022800011F46AEA70E1CE010E9409048C2F0E94C9
:10229000D010DF91CF910895662329F020919807FF
:1022A0002260209398079C0130522115304308F496
:1022B00099270E9436110895882339F19CEF980FD1
:1022C000913A28F40E94E3070E945810089590E282
:1022D000980F983050F4877091E001C0990F8A955B
:1022E000EAF7892F0E944704EFCF9BE5980F9330C0
:1022F00028F480E090E00E9463070895885A8B31AB
:1023000020F480E090E00E9489070895CF93DF9346
:10231000EC010E945C11CE01805E9109089720F0CB
:1023200065EC70E1209711F46EEB70E1CE010E9434
:102330000904DF91CF9108951F93CF93DF93182F56
:10234000EB010E94D010209739F4812F0E945C117C
:10235000DF91CF911F9108958FE99FE00197F1F7E9
:1023600000C000002197EFCF60916408709165086C
:10237000893321F060916208709163080E949C117A
:102380000895A0E0B0E0E7ECF1E10C94772EEC01C9
:102390000881002309F4A8C0013009F044C08981F4
:1023A000813049F48E010E5F1F4F8A810E94B41163
:1023B000E8012196EDCF823039F48E010E5F1F4F78
:1023C0008A810E94D010F4CF833039F48E010E5FE1
:1023D0001F4F8A810E945C11EBCF843011F021964F
:1023E000E8CF2A81229680E090E06AE0AE014F5F5C
:1023F0005F4F2053330B2A30310550F00097C9F25C
:10240000EFE9FFE03197F1F700C000000197F6CF48
:10241000689FF001699FF00D1124C9018E0F9F1F65
:102420002981EA01E3CFE02FF0E0ED54FE4FB490B4
:10243000202F26952695269530E0F901ED55FE4F83
:10244000E4900770F12C002E02C0F594E7940A94F2
:10245000E2F7F1E0EF22FF24F901ED56FE4FC490C0
:10246000D12C002E02C0D594C7940A94E2F781E0E3
:10247000C822DD24F901ED57FE4F1491E114F10457
:10248000A9F4C114D10409F560E070E08B2D0E941D
:102490009C11E12FF0E002C0F595E7950A95E2F76F
:1024A000E0FF87CF8CE20E94B41183CF81EE0E94BF
:1024B000D010C114D10449F460E070E08B2D0E946B
:1024C0009C1181EE0E945C11E4CF86EE0E94D01038
:1024D00060E070E08B2D0E949C1186EE0E945C11E2
:1024E000E114F104B1F2EDCFCDB7DEB7E9E00C9421
:1024F000932E10929707809115018823C1F0809147
:10250000680887FF14C0E0E9F1E08EE1DF011D9269
:102510008A95E9F780E090E00E94630780E090E010
:102520000E948907109298070E9458100895E8E8C1
:10253000F1E086E0EBCF0E9479122FEF84E39CE07C
:10254000215080409040E1F700C0000088E19CE00D
:102550000FB6F894A895809360000FBE909360002A
:10256000FFCFCF92DF92EF92FF92FB018FEF9FEFB1
:102570004430510508F481C0C080D180E280F380EE
:102580000E947912D701C601B695A79597958795B0
:102590008170282F220FD701C60181709927AA27A1
:1025A000BB27822BB701A60132E076956795579538
:1025B00047953A95D1F74170440F440F842BB701EA
:1025C000A601E3E07695679557954795EA95D1F78B
:1025D0004170440F440F440F842BB701A601F4E06F
:1025E0007695679557954795FA95D1F7417042953D
:1025F000407F842BB701A601A5E076956795579596
:102600004795AA95D1F741704295440F407E842B9F
:10261000B701A601B6E07695679557954795BA95A7
:10262000D1F741704295440F440F407C842BB70191
:10263000A60197E076956795579547959A95D1F7B6
:10264000479544274795842B80936808D1FA8827BB
:1026500080F9880F9D2D9170892B909169089C7F3E
:10266000892B80936908609168087091690884E0FB
:1026700090E00E94742F80E090E0FF90EF90DF9058
:10268000CF900895E4E4F8E0128E138E8FEA90E084
:102690009183808385E0848F28E833E1338322832C
:1026A00022E330E0378B268B28EC30E0318F208F0F
:1026B000158E178E168E20E530E031A320A382A35D
:1026C0000E94E70A0E947912109269081092680825
:1026D00080E084608093690860E074E084E090E0CA
:1026E0000E94742F0E94030B0895A4E1B0E0EBE771
:1026F000F3E10C94712EA0901301B090140181E0CD
:1027000090E0909314018093130110E094EF892ED0
:1027100092E0992E26EF622E22E0722E82EEE82EB3
:1027200082E0F82E00E01AC021E030E0111104C070
:10273000F601859194919C01452D602F812F0E9477
:102740006C0A539482E0C80ED11CA3E05A12ECCF5D
:102750000F5FB6E0EB0EF11C0330A9F06701512CBE
:10276000E3CFF4012591349141E060E080E00E94E4
:10277000930AF3012591349140E060E080E00E94EB
:10278000930A11E0CBCF112361F321E030E041E067
:1027900060E0812F0E94930A21E030E040E060E099
:1027A000812F0E94930A1F5F143009F0B7CF0E9457
:1027B00042131A8219821C821B821E821D82188675
:1027C0001F8288EC90E09A87898704EA10E04AE04B
:1027D00050E0B801CE0101960E947A2F065F1F4F8C
:1027E000043F1105A1F7FE013B968AE0DF011D922F
:1027F0008A95E9F77F014AE050E0B801C7010E94DD
:102800007A2F065F1F4F0434B1E01B07A1F7B09287
:102810001401A09213016496EFE00C948D2E80E0D9
:102820000E94C90A60E087E290E00E94562F0E9451
:1028300075130E94B90A81E00E94C90A0895AAE2AC
:10284000B0E0E5E2F4E10C947D2E88EB91E0FC0130
:1028500001962091F100208321E0803C9207B9F796
:102860008091B901893009F456C0C8F4823009F466
:10287000B3C0833009F482C0813071F18091E800E7
:1028800083FFE7C08091B8019091B9019A3008F0B8
:10289000E0C0E92FF0E0EC56F04D0C94B92E8A30F0
:1028A00009F489C08B3051F78091B801813231F73A
:1028B0008091BC019091BD01892B01F78091E800C6
:1028C000877F8093E8000E948A088091BA018093F4
:1028D00015010E947912D2CF8091B801813A71F628
:1028E0008091E800877F8093E8008091BC019091FF
:1028F000BD01892B61F060E080E090E070E00E9413
:1029000031088091E8008B778093E800B7CF68E0CA
:1029100080EC91E0F3CF8091B801813209F0AECF25
:102920008091BC019091BD018D7F892B09F0A6CFCC
:102930008091E800877F8093E8008091E80082FF23
:1029400018C09091F3008091F200029731F48091C9
:10295000F100813011F0863021F48091F1008093F4
:10296000C8018091E8008B778093E8000E948A0874
:1029700085CF8091C7068111E0CF80CF8091B801CB
:10298000813A09F07BCF8091BC019091BD01892BE8
:1029900009F074CF8091E800877F8093E8008091F0
:1029A000E80080FFFCCF809115018093F1008091B9
:1029B000E8008E77D9CF8091B801813209F05ECFDF
:1029C0008091E800877F8093E8000E948A088091C8
:1029D000BB018093B40152CF8091B801813A09F0D4
:1029E0004DCF8091E800877F8093E8008091E800D8
:1029F00080FFFCCF8091B401D8CF803889F0823835
:102A000041F58091BC018F70873018F58093E90003
:102A10008091EB0085FB882780F91092E90006C0C1
:102A20008091B5019091A806911182609091E80083
:102A3000977F9093E8008093F1001092F1008091CD
:102A4000E8008E7723C0811116C08091BA018130D1
:102A500011F18091E80083FF0AC08091E800877F30
:102A60008093E8008091EB0080628093EB00AA964F
:102A7000E3E00C94992E823061F78091BA018823AB
:102A800089F01092E9008091E800877F8093E80048
:102A90000E948A08DECF81E0933009F080E08093C5
:102AA000A806EFCF8091BC018F702FEF280F263042
:102AB00080F68093E9002091EB0020FFE2CF933075
:102AC00031F48091EB0080628093EB00DACF90913B
:102AD000EB0090619093EB0021E030E0A90102C08F
:102AE000440F551F8A95E2F74093EA001092EA00DE
:102AF0008091EB008860E8CF8111ABCF1091BA01D3
:102B00001F778091E3008078812B8093E300809190
:102B1000E800877F8093E8000E948A088091E8009F
:102B200080FFFCCF8091E30080688093E30083E026
:102B3000111101C082E08093C7068BCF805882308C
:102B400008F087CF4091BA015091BB014C3D83E022
:102B5000580799F583E08A838AE289834FB7F8940E
:102B6000DE01139620E03EE051E2E32FF0E05093C7
:102B70005700849120FF03C082958F703F5F8F7054
:102B80008A30C8F0895C90E08D939D932F5F24314B
:102B900061F74FBF8091E800877F8093E8006AE289
:102BA00070E0CE0101960E9431088091E8008B7799
:102BB0008093E8004ECF805DE6CF8091BC0190917C
:102BC000BD01252F33272330310509F44AC078F59C
:102BD0002130310509F483C08BE590E0E3E3F2E0B6
:102BE0002230310509F035CF2091E800277F20936E
:102BF000E8002091BE013091BF018217930708F4CD
:102C00009C0140E02115310509F06EC041116CC0F6
:102C10008091E80082FDC9CF8091C706882329F200
:102C2000853019F28091E80083FFF2CFBECF2132C8
:102C3000310509F445C02232310509F00ACF83304D
:102C4000910508F006CFFC01EE0FFF1FEC5DFE4F73
:102C50000190F081E02D8F5D9E4FDC018C9190E022
:102C600010C0CA019927423019F18330910568F4E8
:102C7000892BB1F4EEEDF2E0E4918E2F90E0EEEDD1
:102C8000F2E0009709F4E5CEAFCF039709F0E1CE6B
:102C9000E0EAF2E0E4918E2F90E0E0EAF2E0F1CF9A
:102CA000EEECF2E0E4918E2F90E0EEECF2E0E9CF72
:102CB000EEEBF2E0E4918E2F90E0EEEBF2E0E1CF6C
:102CC0008330910508F0C5CEFC01EE0FFF1FE65DD5
:102CD000FE4F0190F081E02D89E090E085CF82E108
:102CE00090E0EEE8F2E080CF8091C706882309F4F7
:102CF0005CCF853009F459CF8091E80083FD55CF32
:102D00008091E80082FD84CF8091E80080FF7ACF37
:102D10009091F3008091F2002115310519F088306F
:102D2000910550F041E0089709F040E08091E800FB
:102D30008E778093E80066CF44914093F1003196FE
:102D4000215031090196E8CF803809F082CE809178
:102D5000E800877F8093E8008091B6018093F100BE
:102D60006ECE811176CE1091BA01123008F071CE7C
:102D70008091E800877F8093E8001093B6010E945D
:102D80008A081123D1F084E08093C70642E061EC09
:102D900081E00E94100942E261EC84E00E94100987
:102DA00042E261EC82E00E94100942E260EC83E0C2
:102DB0000E9410098091C7064CCE8091E30087FDE8
:102DC000E2CF81E0E1CF80911601877F80931601E9
:102DD000909198079D7F9093980784FF08C08F7EFD
:102DE0008093160180919707826080939707809166
:102DF000160185FF08C08F7D80931601809197078B
:102E00008062809397070E9458100895CF92DF92B6
:102E1000FF920F931F93CF93DF93EC018B01F42E5E
:102E20008091160182FF6EC0C0908B07D0908C07F6
:102E3000CC16DD0619F0209709F064C080911601C8
:102E40008B7F80931601C1E081FD10C080918907BE
:102E500090918A079801281B390BC1E080911101DC
:102E6000909112012817390708F4C0E0C1708091D1
:102E70001601C0FB81F9809316016C2FC6010E94D8
:102E8000EE068091970781FF08C08091160180614E
:102E90008093160182E00E9447048091970785FF86
:102EA00008C08091160180628093160180E20E9422
:102EB00047046C2FC6010E944C11FF2031F0809115
:102EC0005F0885FF02C086FF31C080916208909143
:102ED0006308009779F480918B0790918C079C018F
:102EE00030522115304308F499270E9486110E9420
:102EF000E31618C0EFE9FFE03197F1F700C00000DA
:102F00000197E7CFCE01905281159043B8F4CE01DE
:102F100099270E94861180918B0790918C07C81782
:102F2000D90729F310938A0700938907DF91CF917E
:102F30001F910F91FF90DF90CF900895CE01E9CFC0
:102F4000CF93DF93EC014A855B856E857F850E9478
:102F500051079B81909580919807892380939807CA
:102F60008C810E9447040E94581086E0FE01119255
:102F70008A95E9F7DF91CF910895CF93DF93EC0124
:102F80008D8181FD17C082608D83809198079B8120
:102F9000892B80939807809197079C81892B809338
:102FA00097070E945810488559856E857F85CE0108
:102FB0000E94510710928607109285078D8180FD2F
:102FC00003C0CE010E94A017DF91CF9108959C010C
:102FD0004FB7F8948091C9019091CA01A091CB019B
:102FE000B091CC014FBF821B930B08950F931F9399
:102FF000CF93DF93C62FD42F122F8823A9F060938D
:1030000095070E94F90F9093B3018093B201C770A6
:1030100081E001C0880FCA95EAF70E94AA10DF91EB
:10302000CF911F910F91089580919507681332C039
:103030008091B2019091B3010E94E717883C9105FD
:1030400048F5CD130CC0812F0E94B411D77081E0D8
:1030500001C0880FDA95EAF70E94BE10E0CFC77072
:1030600001E0802F01C0880FCA95EAF70E94BE10C8
:1030700080E28D0F883050F48D2F877001C0000FD3
:103080008A95EAF7802F0E94AA10DDCF812F0E9437
:10309000B411C5CFC77081E001C0880FCA95EAF7A7
:1030A000DBCFA4E0B0E0E7E5F8E10C94722E7C0100
:1030B000D70114968C91882309F411C3C7010E948B
:1030C000B70B8C01F7018581882329F18091850751
:1030D000909186070097F9F008171907E1F0FC01B5
:1030E000FF27887F9927892B09F068C054E0EE0FED
:1030F000FF1F5A95E1F7EC5FF84F85818460858367
:1031000011830083CF010E94BD1710929807C70159
:103110000E94B70B8C01D70115968C91882309F476
:10312000BFC0C80197578038910508F06BC1D02EF9
:10313000BFE0B01708F4C4C28FEF93E00E94322FB3
:103140008111BEC204E411E0D1103BC044E0942ED2
:10315000AE014F5F5F4F5A01D501E92D1D92EA95EF
:10316000E9F76801FFEFCF1ADF0AC8010E94322F8A
:103170008983882309F4A4C2813009F08DC0380105
:1031800022E0620E711CC6010E94322F882E8A83B3
:10319000882309F495C28FEF880D833000F5C301B1
:1031A0000E94322F8B83882319F0C5010E94C11120
:1031B000680143E0C40ED11C8601CECFE0E0F0E010
:1031C0009CCF0115E4E01E0709F47AC2C8010E94F1
:1031D000322F0F5F1F4F8111F4CFDA94B5CF8BEFF1
:1031E000880D833058F5680153E0C50ED11CC3012A
:1031F0000E94322F8B838823F9F2C6010E94322F5E
:103200008C83882381F08B819C818130AFEF9A077A
:1032100010F0982F8827B6E08B1651F0E7E08E1655
:1032200051F00E9499216801F4E0CF0ED11CC4CF67
:103230000E945521F8CF0E947721F5CF24E0630149
:103240008212BACFC3010E94322F882E680144E057
:10325000C40ED11CC80103960E94322F282F88204B
:1032600009F42EC2882309F42BC22150330B4FEFEF
:10327000429FC001439F900D1124A82DA150BB0B6C
:103280008A0F9B1F019708F497CFEFE9FFE0319772
:10329000F1F700C00000F6CFC5010E94C1118CCF2C
:1032A000011527E5120708F580915F0880FF21C20C
:1032B0000E94F90F6C01D70115968C911597811119
:1032C000D3C0013E110509F08CC1809116018F7E9B
:1032D00080931601F701858181115DC1C80187576F
:1032E0009C47029708F4ECC156C10115B8E51B07CD
:1032F00008F08FC06801E7E5DE1A6AEF76E08C2DF2
:103300000E94270C892B31F5C60124E0880F991FF4
:103310002A95E1F7FC01EC5FF84F2281213009F09A
:103320005CC02091FA063091FB06232B99F0209186
:10333000FC063091FD06232B69F02091FE063091AA
:10334000FF064091000750910107242B352B232BBA
:1033500009F44DC05801F8EFAF22BB24A114B10409
:1033600009F0AEC1F801FF2784E0EE0FFF1F8A9538
:10337000E1F7AF014C5F584F6A01D70115968C9168
:10338000E75FF84F908180FB90F99083882309F4E0
:103390004FC00E94F90F9093880780938707F6012A
:1033A00082818F5F82838091980790919707892B04
:1033B00083838091840784834681578166857785DE
:1033C000C6010E945107D60115968C9181FF5801C4
:1033D000B0928607A09285071CC0223009F0BACFB0
:1033E0002091FE063091FF06232B09F4B3CFFC0198
:1033F000E75FF84F20812E7F20838C5F984F0E94DB
:10340000BD17A8CFC80197558F3F910509F008F463
:10341000A1CF80915F0880FD4BCFF801E851FC47B8
:10342000E730F10508F074C0E256F04D0C94B92E67
:10343000FA014485558566857785C6010E94510746
:10344000D60115968C9181FFE4CFC6010E94A0178A
:10345000809185079091860708171907D1F6109279
:10346000860710928507D5CF8091160182FF06C08E
:1034700040E0B60180E090E00E9406170431BCE70E
:103480001B0709F455C00531ECE71E0771F1D701A0
:1034900015968C910331BCE71B0709F04DC0909144
:1034A0001601916090931601882309F427C11092A8
:1034B0008C0710928B0710929507C801905783973D
:1034C00008F064C284E090E00E94402F9093690865
:1034D00080936808F801E150F047E232F10508F006
:1034E00098C1EB55F04D0C94B92E90911601892F8F
:1034F0008E7F90FF8160809316010E94E316809179
:10350000160180FFF6C0D70115968C91811136C047
:10351000F7018581811110929507D70115969C912D
:103520009111CBCF0631BCE71B0709F0E7C034C2CD
:10353000809116018E7FDFCF9801305221153043E4
:1035400010F1D70115968C919091160190FF65CFDF
:103550000832110508F07CC00E31110508F092C048
:103560009801245031092A31310508F09DCF9091FE
:103570005F0894FF8BC0882309F4BBC010928C07AE
:1035800010928B07C5CF10928C0710928B0788235F
:10359000C9F110929507F7018581882399F10A35C1
:1035A000FCE71F0709F48EC208F071C201304CE736
:1035B000140709F485C203305CE7150709F47AC2E1
:1035C00001158CE71807F1F40E947912BFEFE4E3CC
:1035D000FCE0B150E040F040E1F700C000000E9484
:1035E000CF09053E110541F4809116018F7D80932E
:1035F000160115968C9170CEC8019052811590439A
:1036000008F09FCFF70186819781009709F45EC289
:103610000E944D05C82E192FF701D580809199077A
:10362000877081115DC2892F82958F70903208F466
:10363000B2C2843009F053C0892F86958695837075
:10364000882309F488C2813009F049C0B12CE6C250
:103650000933110560F40D32110520F40B32110508
:1036600009F022CF90915F0892FD85CF0FC00436FC
:103670001105C9F1882309F4D0CE10928C0710925D
:103680008B07CBCE90915F0893FD75CF882309F40B
:1036900097C080919707982F9D7F992309F43CC08C
:1036A00010928C0710928B0790915F0891FD34C0A7
:1036B00060E0C8010E94EE0660E0C8010E944C1163
:1036C000809199078770882351F0D70115968C91C6
:1036D000882329F08091690882FD0E94F9082496C8
:1036E000EEE00C948E2E90915F0892FFCFCF811167
:1036F000DECED70115968C918111DDCE8091970792
:103700008272F801E052F847E531F10508F0E6CDA4
:10371000E953F04D0C94B92E98E0F701ADE8B7E00D
:1037200001900D929A95E1F71092900710928F07F1
:10373000A0908B07B0908C07A016B10681F59091F0
:103740005F0895FF2CC09090160191FA992490F88B
:10375000992011F096FF23C02091890730918A07A4
:10376000F601E21BF30BE83CF105C8F481FF08C049
:103770008091160180618093160182E00E944704C7
:103780008091970785FF08C0809116018062809321
:10379000160180E20E944704692DC5018FCF109366
:1037A0008C0700938B07D0928A07C092890782709A
:1037B000846090911601997F892B8093160180CFA8
:1037C00040E0B601C8010E9406177ACF26E241EE1A
:1037D00061EEF701858106C027E245EE65EED7016F
:1037E00015968C910E94F6176BCF26E241EE60EEA3
:1037F000F0CF27E245EE64EEF2CF26E241EE62EE34
:10380000E8CF27E245EE66EEEACF28E241E065EE3A
:10381000E0CF8091680881608093680860916808B3
:103820007091690884E090E00E94742F0E947912E0
:1038300047CF80916908886080936908EFCF8091B5
:1038400068088260E9CF809168088460E5CF809144
:1038500068088860E1CF809169088160EDCF809130
:1038600069088260E9CF809168088061D5CF809136
:1038700068088062D1CF809168088064CDCF0E94B3
:103880007912809168088068C7CF809168088C6041
:10389000C3CF809169088360CFCF809168088E7F05
:1038A000BBCF80916908877FC7CF809168088D7FE3
:1038B000B3CF809168088B7FAFCF80916808877FF6
:1038C000ABCF809169088E7FB7CF809169088D7FDB
:1038D000B3CF809168088F7E9FCF809168088F7DDD
:1038E0009BCF809168088F7B97CF0E94791280913F
:1038F00068088F7791CF80916808837F8DCF809102
:1039000069088C7F99CF8091680882FB992790F98C
:1039100021E0922790FB82F990FB83F97DCF809183
:103920006908982F909591708E7F892B90FB81F973
:1039300083CF90916808892F8F7B96FF80646CCF2E
:103940000E94791290916808892F97FB87F9805817
:1039500063CF61E08EE090E00E94562F5FCF60E081
:10396000F9CF90916808892F8F7E94FF806154CFA2
:1039700090916808892F8E7F90FF81604DCF909144
:103980006908892F877F93FF886056CF0631BCE78F
:103990001B0709F0A3CC91E08091970730915E0856
:1039A00030FF04C0282F247421111CC0282F2A7A2C
:1039B00031FF04C0482F4171411120E0432F48706E
:1039C00032FF12C0382F3878332371F041111FC0F5
:1039D000911114C0809196078823D9F085E30E9445
:1039E000E30712C020E0E4CF442319F08272811172
:1039F000EFCF992379F385E3211102C090E089E2AA
:103A0000909396070E94AF070E94581059CE20E06D
:103A1000EDCF89E2E4CF0E947B0D52CE44EA5DE017
:103A20006FE97DE00E9412064BCE4FE95DE064EA4B
:103A30007DE0F8CF4BEB5DE061EB7DE0F3CF41EB58
:103A40005DE06BEB7DE0EECF42ED5DE065EC7DE0AF
:103A5000E9CF45EC5DE062ED7DE0E4CF4CEE5DE06A
:103A60006FED7DE0DFCF4FED5DE06CEE7DE0DACF16
:103A70004CE75CE062E67CE0D5CF42E65CE06CE7D8
:103A80007CE0D0CF61E081E00E94570D19CE0B356C
:103A90009CE71907C9F00C35ACE71A0709F0B2CD5D
:103AA0008091690882FB882780F991E089270E942C
:103AB000560AA8CD6FEF7FEF80E090E00E94742F50
:103AC0000E949B1281E0F3CF80E0F1CF0081118151
:103AD000809143080E943504B8010E94890B98CD5B
:103AE000BD2C092F02950F70D11011C0023008F4BF
:103AF00053C0043009F0F3CD1695169513701123B9
:103B000061F1113009F0EBCD80E090E08DC0892F9C
:103B1000807F803489F080E28C0D883068F4023038
:103B2000D0F1043009F0DBCD9695969593709923EA
:103B300009F487C0913088CD8091690882FD12C058
:103B4000023048F1043009F0CACD912F9695969530
:103B500093709111EFCFD11074C080E090E00E947B
:103B60006307BDCD0E94F908809199078770BB2437
:103B7000B3948111B12C023078F0043009F445C0BF
:103B8000BB2009F4ACCD8091990780FDA8CDD70169
:103B900015961C928DCAB12C012F0F70103110F0A8
:103BA0000295007FDD20C9F0002369F080E28C0DD2
:103BB000883010F0C1100BC080919707802B809344
:103BC00097070E9458108C2D0E94D010D9CF809159
:103BD0009807802B80939807F4CF8C2D0E945C115E
:103BE000002371F280E28C0D883010F0C11006C005
:103BF000802F0E9447040E945810C2CF00958091E8
:103C00009807802380939807F6CF912F96959695E5
:103C10009370992361F0913009F0B2CF8C2D912FE0
:103C20009370DD2009F470CF0E948907A9CF80E04E
:103C300090E0DD2019F08C2D912F93700E94630786
:103C40009FCFB12CF8CF0F931F93CF93DF93809129
:103C50004008E091D101CCE0811129C0DF91CF91E2
:103C60001F910F910895D1E0DE0FD093D1010E2F57
:103C700010E0CE9FF0011124E052F84F8481882398
:103C8000A9F086819781892B21F480859185019601
:103C900019F4CF010E945118C09FF001C19FF00D8F
:103CA0001124E052F84F148210929807ED2F809162
:103CB0004008E817C0F2109240081092D101CECF10
:103CC000A4E0B0E0E6E6FEE10C946F2E2091DF0761
:103CD000298317E0912E01E010E08CE0382E94E06B
:103CE000492E552453948091DE079981891308C089
:103CF0000E94231E0E9414072496E1E10C948B2E4F
:103D00005981452F50E05C834B83FA01EE0FFF1F72
:103D1000EC52F84F80819181989ED001999EB00D10
:103D20001124FD01E456F84FFA83E983248121111F
:103D30005DC070904008E0EEF7E060E070E0812C3C
:103D4000671508F051C0A284B384A981BA81CD90CF
:103D5000DC904FEF5FEF612C262D30E07901EE0C07
:103D6000FF1CEC0CFD1CD701ED90FC90E114F1045C
:103D700039F0AE14BF0409F09A016394A901ECCFA5
:103D80004F3F5407E1F1D80102C0AA0FBB1F4A956B
:103D9000E2F78A2AA801062C02C0440F551F0A9494
:103DA000E2F79A0121503109482D50E024173507D8
:103DB00029F5369EF001379EF00D1124E052F84FA0
:103DC000989ED001999EB00D1124A456B84F12961A
:103DD0002D913C9113973783268344821082118260
:103DE0009187808715965C920E9425078B819C8124
:103DF00001969A8389838370898375CF14826F5F5C
:103E00007F4F3C969DCF109242081092410810922D
:103E100017018091DE078093DF070E9414070E943C
:103E2000231E0895AAE1B0E0E8E1FFE10C946E2EB4
:103E3000498B5A8B6B8B7C8B8D8B9E8B882349F0A7
:103E400080916A0890916B08019690936B0880931B
:103E50006A08DE88D11010929807188A1F8686E0BB
:103E6000FE017196DE01199601900D928A95E1F797
:103E70008091690882FF1FC0809146089091470891
:103E8000892BC9F00E94F90F20919A0730919B0766
:103E9000821B930B209146083091470882179307A5
:103EA00028F08091990782FF0E94F9080E9405106E
:103EB00081110E944F048D85882371F0CE010996EF
:103EC0000E94B70B5C0180352CE7920751F4DD208E
:103ED000D9F081E080931701CE0109960E94511814
:103EE000C1C081353CE7930729F4DD2069F00E94C9
:103EF000031FF2CF82359C4739F4DD2029F08091F1
:103F000017018111F4CFE5CF0CE917E0C12C812C0A
:103F1000912C44244394512CF80180819181EE240A
:103F2000EA94FF24FA9420E0622F70E0FB01EE0F88
:103F3000FF1FE80FF91F408151814115510539F0EC
:103F4000A416B50609F0B7012F5F7B01EDCF80E025
:103F5000FFEFEF16FF0609F448C0F8018481958150
:103F600046818111FEC080911701882309F40AC19E
:103F7000DD2009F407C160905A0870905B08911128
:103F800014C081E090E00E2C01C0880F0A94EAF77B
:103F9000482B46838091DC079091DD0786159705B5
:103FA00020F47092DD076092DC07A20102C0440F8A
:103FB000551F2A95E2F79A0121503109F8018681AF
:103FC00090E02817390781F48091410890914208C8
:103FD000009709F44BC00E94E7176816790608F0AD
:103FE00045C081E0F80184838D2DC82AFFEF8F1A28
:103FF0009F0A095F1F4F28E08216910409F08CCFB9
:10400000DD2009F41BC1CC2009F406C10E94F90F80
:10401000909342088093410880914008883010F5C1
:1040200091E0980F9093400898E0FE013996DE01E8
:10403000119601900D929A95E1F73CE0839FC001A3
:1040400011248052984F28E0FE013196DC01019046
:104050000D922A95E1F72FEF3FEFFC013187208782
:10406000B386A2866A96E2E10C948A2E2091DF073D
:104070008091DE07922FE0E0F0E07801281314C071
:104080009093DF07E017F10709F4AECF90E0FC0151
:10409000EE0FFF1FEC52F84F9182808201968370E1
:1040A00099278093DE07A0CF622E712CF301EE0FCB
:1040B000FF1FEC52F84F60817181F7E0F69FD0014D
:1040C000F79FB00D1124A456B84F4D915C911197F4
:1040D0005A8F498F50E030E040E0E42FF0E0EE0FDF
:1040E000FF1F698D7A8DE60FF71F20803180211424
:1040F0003104E1F0F8010190F081E02DF88FEF8BB1
:1041000030E005C02616370609F45D2D3F5FE32F2A
:10411000F0E0EE0FFF1F6F89788DE60FF71F6081CB
:1041200071816115710571F74F5FD7CF5523B1F0DC
:10413000F701341708F0FD0131E03483E017F1078F
:1041400009F49ECF291305C0EA17FB0711F49F5FFE
:10415000937093012F5F3F4F237090CFE0E0F0E02A
:10416000F8CF50E091112BC0C20102C0880F991FF7
:104170002A95E2F701974817590799F4C4010E945C
:1041800025070FC050E091111AC0B20102C0660F9E
:10419000771F2A95E2F79B012150310942175307F7
:1041A00009F080E0920102C0220F331FEA94E2F787
:1041B0007901E094F80196819E21968316CFCA0179
:1041C0000E2C02C0959587950A94E2F79A0121502A
:1041D000310924233523232BE9F480FF1BC0F80188
:1041E00082819381892B91F019821A820E94F90FA2
:1041F0009C838B8384E08D831E82F801828193816E
:1042000098878F83CE0101960E945118F80115827C
:1042100081E0C8CF8170C6CF9091DE078091DF0723
:10422000981309C00E94231E109242081092410860
:104230000E94140751CE0E94601E4ECE9091DF075F
:104240008091DE07981729F00E94601EC1100ACFE6
:1042500043CE0E94231E10924208109241080E94F1
:104260001407F4CFA6E0B0E0E8E3F1E20C947C2E72
:104270000E94F90F8C018091CC069091CD06801799
:10428000910779F019821A820E94F90FBC014981C5
:104290005A8180E090E00E94121F1093CD06009397
:1042A000CC062696E4E00C94982EA6E0B0E0EBE570
:1042B000F1E20C947E2E9093C9068093C806811576
:1042C00020E2920730F40E9436112696E2E00C9428
:1042D0009A2E80EF89838A830E94F90F8160BC0146
:1042E00049815A8181E091E00E94121FEECFA6E041
:1042F000B0E0EDE7F1E20C947E2E9093C906809336
:10430000C806811520E2920730F40E948611269695
:10431000E2E00C949A2E80EF89838A830E94F90F41
:104320008160BC0149815A8181E090E00E94121FA6
:10433000EECFCF93DF93D82FC92F0E9455218091C4
:10434000620890916308009739F48D2F9C2F0E948A
:104350007721DF91CF910895EFE9FFE03197F1F7F1
:1043600000C000000197EFCF0F931F93CF93DF930F
:104370008C01862F6AEF76E00E94270C892BB1F41E
:10438000C091FA06D091FB06209781F0F801828156
:10439000833051F4CE010E949921CE010E949921CF
:1043A000CE010E94992102C08430D0F7DF91CF91D5
:1043B0001F910F9108950F931F93CF93DF938C015B
:1043C000EB016AEF76E08C2F0E94270C892B09F015
:1043D0005AC0FE01FF27D80112968C911297EE5712
:1043E000FD4F8130A9F415968C9182FD51C080FF5C
:1043F0004FC082E080838091FC069091FD0600977B
:10440000B9F48091FA069091FB060097E1F110C093
:104410008230B9F515968C9182FD28C080FD0BC0C5
:1044200083E080838091FE069091FF06009701F162
:104430000E94552128C084E08083809100079091DC
:1044400001070097A9F78091FA069091FB06009763
:1044500011F10E9499218091FC069091FD06009730
:1044600039F78091FA069091FB06E2CF85E08083D0
:104470008091FA069091FB06009729F00E949921FD
:10448000F0CF86E08083DF91CF911F910F91089547
:1044900081E08083B6CF8091FC069091FD06B5CF78
:1044A0000F931F93CF93DF938C01EB016AEF76E0BC
:1044B0008C2F0E94270C892BA1F480916208909187
:1044C0006308009799F4DD27CE57DD4F8881F80106
:1044D00012821882833031F188F4813099F0823071
:1044E000C1F0DF91CF911F910F910895EFE9FFE0A7
:1044F0003197F1F700C000000197E3CF8430B9F0A5
:10450000853079F78091FA069091FB06009749F380
:1045100006C08091FC069091FD06009799F30E94D9
:104520007721DFCF8091FE069091FF06F6CF809134
:10453000000790910107009791F72091FA063091BA
:10454000FB068091FC069091FD0621153105F1F2E4
:10455000009729F7C901E3CFA3E0B0E0E2EBF2E274
:104560000C94732E1A8219821B8288E3A82E81E094
:10457000B82E8E010F5F1F4F9BE3E92E91E0F92EBD
:104580004801CC24C394D12CF50181915F018F3F68
:1045900009F442C0F894E82FE295EF70F0E021A111
:1045A0008F70A60102C0440F551F8A95E2F7CA0119
:1045B000922F982B91A392A18095892382A378941E
:1045C00000C0EBE3F1E031E0712C21912F3F09F4C1
:1045D00053C0A22FA295AF70A05EB0E08C9190E086
:1045E0002F7002C0959587952A95E2F78170811109
:1045F00043C0832F782A330F51E0EE33F50729F7B4
:10460000F501319780818F3F11F00E94CF0580EA3C
:104610008A95F1F7F80170820F5F1F4FEA14FB04CF
:1046200009F0B2CF43E050E0B40186E992E00E9485
:10463000052F892B19F189819A81AB81809396028C
:1046400090939702A093980281E08093B1010E9419
:10465000F90F9093B0018093AF014C9934C08091D1
:10466000AE01811105C00E947B0D81E08093AE01F7
:104670002396EDE00C948F2E80E0BCCF8091B101A9
:10468000882359F38091AF019091B0010E94E71700
:10469000059718F343E050E066E972E084EC96E099
:1046A0000E94052F892B61F08091960290919702CC
:1046B000A09198028093C4069093C506A093C60665
:1046C0001092B101CACF1092AE01D2CFCDB7DEB7F2
:1046D000EA970FB6F894DEBF0FBECDBF85B78068EE
:1046E00085BF85B7806885BF84B7877F84BF0FB6D5
:1046F000F894A89580916000886180936000109282
:1047000060000FBE80E890E00FB6F89480936100DF
:10471000909361000FBE8DEC95E09093850180939E
:1047200084010E9426060E94E30B0E94030B0E9454
:10473000DA080E9447098091E20084608093E200D9
:1047400078948091C706882399F08091E9001091B0
:10475000EC001795112717958F70182B1092E90010
:104760008091E80083FD0E941F141F701093E900E0
:1047700082E084BD93E095BD9AEF97BD80936E0073
:104780000E94CA0B811102C00E940F14E0EBF6E0F8
:1047900088E0DF011D928A95E9F781E08093AF06FA
:1047A00060E080E00E94BE0661E080E00E94BE06FC
:1047B000EFE8F1E03197F1F700C0000010E08091E0
:1047C000AF06181708F4B7C086EC0E94CF0584E343
:1047D0000E94CF0585E30E94CF0584EF0E94CF059C
:1047E00085EF0E94CF0586EF0E94CF0583E0E4ECC1
:1047F000F6E0DF01282F1D922A95E9F7E6E9F2E0BD
:10480000DF011D928A95E9F754985C9A80E090E068
:104810000E94402F853E9E4F21F40E94CA0B8111B9
:1048200063C065EE7EEF80E090E00E94742F60E050
:1048300082E090E00E94562F81E08093430861E07F
:1048400083E090E00E94562F60E074E184E090E005
:104850000E94742F60E086E090E00E94562F60E096
:1048600087E090E00E94562F40E050E0BA0188E0D7
:1048700090E00E94682F60E083E290E00E94562F53
:1048800060E08CE090E00E94562F60E08DE090E0C8
:104890000E94562F19821A821B821C821D821E8240
:1048A0001F82188648E050E067E170E0CE01019673
:1048B0000E94462F40E050E0BA018FE190E00E9454
:1048C000682F80E00E94C90A0E940F1440E050E067
:1048D000BA018FE090E00E94682F40E050E0BA01FA
:1048E00083E190E00E94682F82E090E00E94322FE6
:1048F0008093A90684E090E00E94402F909369087D
:10490000809368080E94AC22EFEFF6E721E0E150C7
:10491000F0402040E1F700C000000E94AC228091EE
:10492000C40680FF1AC06FEF7FEF80E090E00E9426
:10493000742F0E94CF0960E0812F0E94D906082FB2
:1049400061E0812F0E94D906E12FF0E0E255F94F96
:10495000880F802B80831F5F32CF83E090E00E941E
:10496000322F8093430882E08093A50680E88093ED
:10497000A4060E943A2D6BE070E08FE096E00E9462
:10498000290E882309F443C08091A50665E070E0F4
:1049900081FD7FC18AE096E00E94290E8823B9F14B
:1049A0006DE070E088EF95E00E94290E882379F190
:1049B0000E9410086FAB78AF89AF9AAFDC01CB01D2
:1049C000805A9541AF4FBF4F8093A0069093A106A8
:1049D000A093A206B093A306EDE9F2E080E094E094
:1049E000DF019C011D9221503040E1F7F0939C02C1
:1049F000E0939B028FEF9FEF90939A02809399022E
:104A000081E080939F0680939E0610929D06809180
:104A1000A606811197C088E090E00E943A2F6B01B2
:104A20007C0183E290E00E94322F282F30E040E0AA
:104A300050E060E070E080E090E000E20E94C62E6E
:104A4000F22FA32EB42EB52FA62FE72F97018601A4
:104A500040E050E0BA01FC29A12AB22AB32BA42BD2
:104A6000E52B862B972BF093BC06A092BD06B09247
:104A7000BE06B093BF06A093C006E093C106809324
:104A8000C2069093C306F43008F04CC025E0209392
:104A9000BC061092BD062FEF2093BE0620E52093A2
:104AA000BF061092C00625E030E04FEF50E560E011
:104AB0007E2F0E943C0C88E090E00E943A2F6B0110
:104AC0007C0183E290E00E94322F282F30E040E00A
:104AD00050E060E070E080E090E000E20E94C62ECE
:104AE0005901B42FA52FF62FE72F9701860140E03B
:104AF00050E0BA01AC28B12AB22BA32BF42BE52B42
:104B0000862B972BA092BC06B092BD06B093BE0632
:104B1000A093BF06F093C006E093C1068093C2063F
:104B20009093C3060E94E8050E94EC068091BC06A3
:104B300080FF05C060E0869586950E94570D81E054
:104B40008093A60687E091E09093EF068093EE06AF
:104B5000A8E1CA2ED12CB2E15B2E7724739466248F
:104B6000639414E0A12EB12C8091C70610E4853027
:104B700009F4DFC00E94AC229091AA068091C4067D
:104B80009813E1C09091AB068091C5069813DBC0E5
:104B90009091AC068091C6069813D5C00E94322130
:104BA000E12C009185071091860701151105E9F0A8
:104BB00080918707909188070E94E717893C9105AB
:104BC000A0F0C8019927087F1127012B09F0F8C030
:104BD000E4E0880F991FEA95E1F78C5F984FDC01BC
:104BE00015962C9122FF0E94BD17809117018823F2
:104BF00001F180914108909142080097D1F00E9404
:104C0000E7172091DC073091DD072817390788F472
:104C10009091DF078091DE07981709F4D4C00E94B5
:104C2000601E1092DC071092DD071092410810926E
:104C3000420880915F0880FF1CC08091160182FFAE
:104C400018C00E94F90FBC018091890790918A07D2
:104C50009B01281B390B809111019091120128179B
:104C6000390738F041E080918B0790918C070E94C2
:104C700006178091B806882351F08091B2061092F1
:104C8000B8068093B3068091B0068093B10600E029
:104C9000F1C085E096E080CE8091C706843019F19E
:104CA0000E94360E1092A7060FB6F894A895C092EF
:104CB00060000FBE1093600083B7817F846083BF64
:104CC00083B7816083BF7894889583B78E7F83BFD5
:104CD0000FB6F894A8958091600088618093600079
:104CE000109260000FBE0E94AC228091C506909188
:104CF000C406892B9091C606892B8823D1F0809118
:104D0000A8068823B1F030E139BD59BC09B400FED2
:104D1000FDCF8091D8008F7D8093D8008091E000F6
:104D200082608093E0008091E00081FDFCCF0E94D2
:104D300079128091C706853009F4AECF0E947912AE
:104D40000E94560717CFF4ECEF2EF6E0FF2E0AEA8A
:104D500016E0912CD7018D907D01F80121908F01F3
:104D6000281429F12824412C33243394822D8321C3
:104D70008823A9F049829A820E94F90F9C838B8331
:104D80006D8291E0882D8321811101C090E09E8386
:104D900049815A816B817C818D810E94121F4394CD
:104DA000330CF3E04F12E2CFF801319780829394F5
:104DB00023E09212CFCF0E941008EE24E394F1CEAC
:104DC00080E090E00CCF0E94231E109241081092C8
:104DD00042080E9414072DCF61E0802F0E94D9065F
:104DE000982E60E0802F0E94D906990C8929E02F27
:104DF000F0E09F012255394FD9014C91942F9370C7
:104E00008917B9F1A42FAA0FAA0F8A2BD9018C9365
:104E1000A82FAF70B0E0A25CBE4FE355F94F8C9164
:104E20009081890F808384300CF464C0412F50E05E
:104E30002F2D30E0BA016F5F7F4F63707727261701
:104E4000370781F04055594F902F9F77DA0114961C
:104E50009C931F5F13701093B2069091B0069F5FF2
:104E60009093B006082E000C990BB5010E94A52E58
:104E700080830F5FF090B3061091B2068091AF0669
:104E8000081708F4A9CF90E00CEF53E0952E6DEFD2
:104E9000F62E72E0872E8091B3062091B206281775
:104EA00009F45FC0E82FF0E0EC54F94F9081192F1E
:104EB0001F778F5F83708093B3068091B1068F5FF9
:104EC0008093B10697FD2BC01BA70CA70E94F90F7A
:104ED000BC018DA79EA79FA678AA4BA55CA583E0E1
:104EE00091E00E94121F19AB0AAB0E94F90F282F04
:104EF00083E02AC08D3F0CF0B5CF412F50E02F2D1D
:104F000030E0BA016F5F7F4F63707727261737074E
:104F100009F4A8CF4055594F902F906897CF1BA701
:104F2000FCA60E94F90FBC018DA79EA78FA678AAA8
:104F30004BA55CA582E091E00E94121F19ABFAAA72
:104F40000E94F90F282F82E0622F792F2BAB9CABA8
:104F50008DAB1EAA49A95AA990E00E94121F91E0A8
:104F60009ACF992339F00E9410080E94750E0E9472
:104F7000480E04C00E94750EE110F9CF0E9456073A
:104F80009091B906891721F08093B9060E94100804
:104F90008091C706843009F0E7CD83E08093E90073
:104FA0008091E80082FFE0CD8091E80085FD06C099
:104FB0008091E8008B778093E800D6CD0E94A90805
:104FC00040E2E42EF12C8E010F5F1F4F882361F128
:104FD0008091E8008B778093E8000091CA061091D9
:104FE000CB06E9810115110569F1EE3F09F04DC0CD
:104FF0008A81833020F08550833008F046C0EA81F2
:10500000EE3008F042C0F0E0E452F04D0C94B92EBE
:105010008091F100F8018083F1E0EF1AF108E114CA
:10502000F104B1F20F5F1F4F8091E80085FDF0CFD2
:105030008091E8008B778093E8000E94A90888237C
:1050400099F3C6CFE43150F4EE2351F0E150E3314F
:1050500038F4F0E0E651F04D0C94B92EEE3F79F2C1
:105060008FEF88C21A8289E08B830FC08A818230D9
:10507000A9F08330E1F0813099F70E9410080E9476
:10508000BF2E6B837C838D839E8340E250E0BE0104
:105090006F5F7F4F82E00E94F30966CD87E290E068
:1050A0000E94322F1B821C821D828E83EECF809144
:1050B000130190911401892B41F38091C4068B83D5
:1050C0008091C5068C838091C6068D83DECF8A8150
:1050D000823031F68B819C81AD81BE818FAB98AFE0
:1050E000A9AFBAAFBC01CD010E94BF2E87E290E00C
:1050F0000E94562FCACF4C816B818A810E94280B57
:105100009827892798279E838D83BFCF2D813E8145
:105110003227232732274C816B818A810E946C0AB7
:10512000B4CF0E947513B1CF8A81823881F1A0F487
:105130008038D9F0813809F0A8CF60E08B810E94D7
:10514000570D9B818091BC06911118C08E7F809372
:10515000BC060E94FD0599CF833809F096CF20E068
:105160004091BF066C818B8106C020E04B8160912D
:10517000BE068091BD060E94960C87CF8160809309
:10518000BC0660E0869586950E94570D7ECF8B8188
:105190008093C0067ACF8A818238E1F060F480384B
:1051A000A1F0813809F071CF8091BC0680FF10C05A
:1051B0008695869559CF833809F067CF8091BD06D3
:1051C0008B838091BE068C8360CF8091BF064CCFCD
:1051D00080E04ACF8091C00647CF2091BC06309135
:1051E000BD064091BE065091BF066091C006709109
:1051F000C1068091C2069091C3060E943C0C45CF27
:1052000080E18A8342CF82E08A838CEB2DCF8C8130
:10521000082F10E08D3108F038CF8A809B809824C9
:1052200089249824080D191D7E0195E0E90EF11CD2
:105230008016910609F429CF80E0ACEB8A16A2E033
:105240009A0628F4C4018C5B9E4F0E94322FF7010E
:1052500081937F01FFEF8F1A9F0AEACF809113019C
:1052600090911401892B09F410CF8C81E82EF12C38
:105270008D3108F00ACF0A811B81102701271027E2
:105280009E012F5F3F4F4901E20EF31E8E149F04D3
:1052900009F4FBCE0C3B32E0130740F4D401149622
:1052A0006C91C8018C5B9E4F0E94562F0F5F1F4F61
:1052B000BFEF8B1A9B0AEACF0E94B90AE6CE84E0C0
:1052C000A0CF8C81E82EF12C8D3108F0DECE0A8142
:1052D0001B81102701271027E00EF11E4E01E5E08B
:1052E0008E0E911C0E151F0509F4CFCE80E00834F8
:1052F000110520F4C80188960E94322FD4018D93A5
:105300004D010F5F1F4FEECF8C81E82EF12C8D31B8
:1053100008F0BBCE0A811B81102701271027083413
:10532000110508F0B2CE88E490E0801B910B8E1539
:105330009F0508F4AACEFE0131964F01EE0EFF1E26
:105340008E149F0409F4A1CE0834110538F4D40159
:1053500014966C91C80188960E94562F0F5F1F4FBC
:10536000BFEF8B1A9B0AECCF88E0E8E1F1E0DE01A9
:10537000919601900D928A95E1F7FE0132968FE1A8
:10538000DF011D928A95E9F786E0898388E07F96A0
:10539000DE01159601900D928A95E1F776CE84EFA5
:1053A00089831A821B821C8270CE8B819C81092E7C
:1053B000000CAA0BBB0B35E0880F991FAA1FBB1F5F
:1053C0003A95D1F7AC01BD01405E5F4F6F4F7F4F03
:1053D000803EEFEF9E07AE07BE0708F056CE843F33
:1053E0009105A105B10508F050CE453F5105610575
:1053F000710520F044EF50E060E070E0481B590B6D
:10540000BC016655794FCE0101960E94FC2E3DCE1F
:105410001B810C8140E0602F812F0E94570B982741
:10542000892798279A83898341E0602F812F0E94E2
:10543000570B9827892798279C838B8326CE8E81AC
:105440009F819827892798270E9419069C0141E08F
:105450008D81811101C040E06C818B810E94930A93
:1054600014CE4EE150E06FEF70E0CE0103960E9443
:105470001B2F8091130189830A8307CE81E090E07E
:105480009093CB068093CA0682E390E09093BB068C
:105490008093BA060E94F90FF8CD80911301898399
:1054A0000A838091BA06E0CD0B811C8140E250E076
:1054B0006FEF70E0CE0101960E941B2F8AE196E00B
:1054C00042E050E020E030E0FC0165917491061765
:1054D000170758F0F6E08E399F0709F4D6CDB901C9
:1054E0006E5F7F4F0C96A90116C0A1E0B0E0AC0F33
:1054F000BD1F2A0F3B1FF90171836083F6E08E39CF
:105500009F0709F4C2CDBA016E5F7F4F0C966132DE
:10551000710508F0BACD9A01AB01D6CF2B813C8141
:10552000EAE1F6E0859194912817390791F086E237
:1055300096E04AEA56E04817590709F491CDFC0174
:1055400065917491FC013C962617370721F0CF0135
:10555000F2CF8AE196E0FC0136962591349121152F
:10556000310509F47DCD4FE150E0BE016E5F7F4F04
:10557000F9010995898389CD8B819C81EAE1F6E067
:105580002591349106E216E02817390741F50AE122
:1055900016E0F8013896259134912115310519F15D
:1055A0004CE150E0BE016B5F7F4FC801F9010995E6
:1055B0007C01892B41F4F8013A96859194910097EA
:1055C00011F0FC010995E98260CDF8012591349133
:1055D000A801445F5F4F82179307D9F28A01F6E072
:1055E0000A3A1F0791F7EE24EA94FE2CECCF0E94B2
:1055F00042134BCD8B81823009F44EC060F481118F
:1056000034C0FE0133968EE1DF011D928A95E9F7E1
:1056100088E08983F6CD833009F474C0843009F0C2
:1056200034CD1C818AE0FE013596DE019196019011
:105630000D928A95E1F789A59AA50E9419069AA765
:1056400089A78FEF183068F4FAE01F9FB00111248A
:105650006C507F4F4AE050E0CE0181960E947A2F35
:1056600080E089830E94E30B10CD8C819AE0F92EB3
:105670008E010F5D1F4FF8012F2D11922A95E9F72A
:10568000B8010E94270C8983F801DE01129601906F
:105690000D92FA94E1F7F9CC1C818AE0FE0135966F
:1056A000DE01919601900D928A95E1F789A19AA168
:1056B0000E9419069AA389A38BA19CA10E94190696
:1056C0009CA38BA38DA19EA10E9419069EA38DA3CE
:1056D0008FA198A50E94190698A78FA38FEF183065
:1056E00068F43AE0139FB00111246C557F4F4AE0F3
:1056F00050E0CE0181960E947A2F80E089830E943B
:105700002606C3CC2C816AE0CE018196DC01E62F0F
:105710001D92EA95E9F7283088F4629FB0011124C0
:105720006C507F4F4AE050E00E94222F80E0898336
:105730008AE0FE01B196DE0112962CCE8FEFF7CFF4
:1057400078941F921FB61F9211248F939F93AF934B
:10575000BF938091C9019091CA01A091CB01B091F2
:10576000CC010196A11DB11D8093C9019093CA017E
:10577000A093CB01B093CC01BF91AF919F918F913A
:105780001F901FBE1F9018951F920F920FB60F9279
:1057900011242F933F934F935F936F937F938F9336
:1057A0009F93AF93BF93EF93FF938091E10082FFAC
:1057B00009C08091E20082FF05C08091E1008B7FEB
:1057C0008093E1008091DA0080FF24C08091D800AE
:1057D00080FF20C08091DA008E7F8093DA00809174
:1057E000D90080FF9BC080E189BD82E189BD09B4F9
:1057F00000FEFDCF81E08093C7068091B701811143
:1058000009C00E94DA080E9447098091E200846082
:105810008093E2008091E10080FF17C08091E20058
:1058200080FF13C08091E2008E7F8093E200809120
:10583000E20080618093E2008091D80080628093D2
:10584000D80019BC85E08093C7068091E10084FFF1
:1058500029C08091E20084FF25C080E189BD82E1FA
:1058600089BD09B400FEFDCF8091D8008F7D809363
:10587000D8008091E1008F7E8093E1008091E2006A
:105880008F7E8093E2008091E20081608093E2004D
:105890008091B601882309F447C084E08093C7064D
:1058A0008091C7068091E10083FF27C08091E200CC
:1058B00083FF23C08091E100877F8093E10082E035
:1058C0008093C7061092B6018091E1008E7F80938D
:1058D000E1008091E2008E7F8093E2008091E200FF
:1058E00080618093E20042E060E080E00E94100965
:1058F0008091F00088608093F000FF91EF91BF915C
:10590000AF919F918F917F916F915F914F913F9157
:105910002F910F900FBE0F901F90189519BC1092E9
:10592000C7061092B70176CF8091E30087FF02C0CF
:1059300083E0B4CF81E0B2CF1F920F920FB60F92E7
:105940001124FF920F931F932F933F934F935F93D5
:105950006F937F938F939F93AF93BF93CF93DF9377
:10596000EF93FF9309EE10E0F8018081C091EC0005
:10597000C795CC27C7958F70FC2EF82A1082C0EFF0
:10598000D0E08881877F888378940E941F14F80173
:105990001082888188608883CF2DCF70C083FF916B
:1059A000EF91DF91CF91BF91AF919F918F917F91B7
:1059B0006F915F914F913F912F911F910F91FF90A8
:1059C0000F900FBE0F901F901895FF920F931F938B
:1059D000CF93DF93182FEB011092BC0084EA8093E1
:1059E000BC000E94F90F082FF92E8091BC0087FFA0
:1059F00028C08091B900887F883029F08091B90053
:105A0000887F8031A1F51093BB0084E88093BC00AF
:105A10000E94F90F182F092F8091BC0087FF1FC02B
:105A20002091B900287F80E090E0283199F081E052
:105A300090E0203411F480E090E0919581959109F7
:105A400009C0802F9F2D0E94E717C817D90768F655
:105A50008EEF9FEFCDB7DEB7E5E00C94972E812F48
:105A6000902F0E94E717C817D907B0F6F1CF8FEF34
:105A70009FEFF0CF1092B9008CE08093B8000895AA
:105A80000F931F93CF93DF93EB018093BB0084E8C8
:105A90008093BC000E94F90F182F092F8091BC0041
:105AA00087FF11C02091B900287F81E090E0283263
:105AB00011F480E090E0919581959109DF91CF916B
:105AC0001F910F910895CF3FDC0741F3812F902F55
:105AD0000E94E717C817D90708F78EEF9FEFEECFA0
